{
  "transactions": [
    {
      "hash": "0x08b93bd5a0875f61fb1abc9f5c50ab6fda498dcaee4b69223234cf0e6779e6cb",
      "transactionType": "CALL",
      "contractName": null,
      "contractAddress": "0x5f3b21debc4e32591c96d6a1a77a15ce5ebf09eb",
      "function": "approve(address,uint256)",
      "arguments": [
        "0xE35C175d34EACE9C9191f1A3bf17c40e0237A17A",
        "1"
      ],
      "transaction": {
        "from": "0x07943b8134e559fdb31fd812e4a4911a0a2942b7",
        "to": "0x5f3b21debc4e32591c96d6a1a77a15ce5ebf09eb",
        "gas": "0x1068d",
        "value": "0x0",
        "input": "0x095ea7b3000000000000000000000000e35c175d34eace9c9191f1a3bf17c40e0237a17a0000000000000000000000000000000000000000000000000000000000000001",
        "nonce": "0x4a",
        "chainId": "0xaa36a7"
      },
      "additionalContracts": [],
      "isFixedGasLimit": false
    },
    {
      "hash": "0xa0b100492fc9e8d4e07fab275797e7c2d8e4be5fc3a4edcfa639a9132b7a8c2b",
      "transactionType": "CALL",
      "contractName": null,
      "contractAddress": "0xe35c175d34eace9c9191f1a3bf17c40e0237a17a",
      "function": "auctionEnd()",
      "arguments": [],
      "transaction": {
        "from": "0x07943b8134e559fdb31fd812e4a4911a0a2942b7",
        "to": "0xe35c175d34eace9c9191f1a3bf17c40e0237a17a",
        "gas": "0x2520d",
        "value": "0x0",
        "input": "0x2a24f46c",
        "nonce": "0x4b",
        "chainId": "0xaa36a7"
      },
      "additionalContracts": [],
      "isFixedGasLimit": false
    }
  ],
  "receipts": [
    {
      "status": "0x1",
      "cumulativeGasUsed": "0xccb5c8",
      "logs": [
        {
          "address": "0x5f3b21debc4e32591c96d6a1a77a15ce5ebf09eb",
          "topics": [
            "0x8c5be1e5ebec7d5bd14f71427d1e84f3dd0314c0f7b2291e5b200ac8c7c3b925",
            "0x00000000000000000000000007943b8134e559fdb31fd812e4a4911a0a2942b7",
            "0x000000000000000000000000e35c175d34eace9c9191f1a3bf17c40e0237a17a",
            "0x0000000000000000000000000000000000000000000000000000000000000001"
          ],
          "data": "0x",
          "blockHash": "0x7aaabc888c96cbc1b377fe8d5270ebb0cf89d4fbe5eab639206a28038d1bf204",
          "blockNumber": "0x6f4091",
          "transactionHash": "0x08b93bd5a0875f61fb1abc9f5c50ab6fda498dcaee4b69223234cf0e6779e6cb",
          "transactionIndex": "0x51",
          "logIndex": "0x95",
          "removed": false
        }
      ],
      "logsBloom": "0x00000000000000000000000000000000000000000000000000000000000000000000000000000000000000000000000000000000001000000000000000240000000000020000000000004000000000000000000000040040000000000000000000000000000000000000000000000000000000000000000000000000000000000000000000000000000000000000000000000000000000400000000000000000020000001000000000000000000000000000000008000000000000000000000000000000000000000200000000000400000000000000000000000000000040000010000000000000000000000000000000000000000000000000000000000000",
      "type": "0x2",
      "transactionHash": "0x08b93bd5a0875f61fb1abc9f5c50ab6fda498dcaee4b69223234cf0e6779e6cb",
      "transactionIndex": "0x51",
      "blockHash": "0x7aaabc888c96cbc1b377fe8d5270ebb0cf89d4fbe5eab639206a28038d1bf204",
      "blockNumber": "0x6f4091",
      "gasUsed": "0xbe16",
      "effectiveGasPrice": "0x927ef3c28",
      "from": "0x07943b8134e559fdb31fd812e4a4911a0a2942b7",
      "to": "0x5f3b21debc4e32591c96d6a1a77a15ce5ebf09eb",
      "contractAddress": null
    },
    {
      "status": "0x1",
      "cumulativeGasUsed": "0xce63de",
      "logs": [
        {
          "address": "0xe35c175d34eace9c9191f1a3bf17c40e0237a17a",
          "topics": [
            "0xdaec4582d5d9595688c8c98545fdd1c696d41c6aeaeb636737e84ed2f5c00eda"
          ],
          "data": "0x000000000000000000000000f4445f38bd9c3038f17cee4a95897213a2a56192000000000000000000000000000000000000000000000000000000000000000a",
          "blockHash": "0x7aaabc888c96cbc1b377fe8d5270ebb0cf89d4fbe5eab639206a28038d1bf204",
          "blockNumber": "0x6f4091",
          "transactionHash": "0xa0b100492fc9e8d4e07fab275797e7c2d8e4be5fc3a4edcfa639a9132b7a8c2b",
          "transactionIndex": "0x52",
          "logIndex": "0x96",
          "removed": false
        },
        {
          "address": "0xdd8670e1f26abec9cfbab73bca4d12edd74c1ab2",
          "topics": [
            "0xddf252ad1be2c89b69c2b068fc378daa952ba7f163c4a11628f55a4df523b3ef",
            "0x000000000000000000000000e35c175d34eace9c9191f1a3bf17c40e0237a17a",
            "0x00000000000000000000000007943b8134e559fdb31fd812e4a4911a0a2942b7"
          ],
          "data": "0x000000000000000000000000000000000000000000000000000000000000000a",
          "blockHash": "0x7aaabc888c96cbc1b377fe8d5270ebb0cf89d4fbe5eab639206a28038d1bf204",
          "blockNumber": "0x6f4091",
          "transactionHash": "0xa0b100492fc9e8d4e07fab275797e7c2d8e4be5fc3a4edcfa639a9132b7a8c2b",
          "transactionIndex": "0x52",
          "logIndex": "0x97",
          "removed": false
        },
        {
          "address": "0x5f3b21debc4e32591c96d6a1a77a15ce5ebf09eb",
          "topics": [
            "0xddf252ad1be2c89b69c2b068fc378daa952ba7f163c4a11628f55a4df523b3ef",
            "0x00000000000000000000000007943b8134e559fdb31fd812e4a4911a0a2942b7",
            "0x000000000000000000000000f4445f38bd9c3038f17cee4a95897213a2a56192",
            "0x0000000000000000000000000000000000000000000000000000000000000001"
          ],
          "data": "0x",
          "blockHash": "0x7aaabc888c96cbc1b377fe8d5270ebb0cf89d4fbe5eab639206a28038d1bf204",
          "blockNumber": "0x6f4091",
          "transactionHash": "0xa0b100492fc9e8d4e07fab275797e7c2d8e4be5fc3a4edcfa639a9132b7a8c2b",
          "transactionIndex": "0x52",
          "logIndex": "0x98",
          "removed": false
        }
      ],
      "logsBloom": "0x00000000000000000000000000000000000000000000000080000000000000000000000000000000000000000000000000000000001000000000000000040000000000020000000000004008000000000000000200040040000000000000000000000000000000000000000000000000000000000004000000000010000000000000000000000000000000000000000000000000020000402001000000000000000000001000000000000000000000000000000008000000000000000040000000020002000000000200001000000400000000000000000000000000000040200000000000000000000000000010000000000000000000000000000000000000",
      "type": "0x2",
      "transactionHash": "0xa0b100492fc9e8d4e07fab275797e7c2d8e4be5fc3a4edcfa639a9132b7a8c2b",
      "transactionIndex": "0x52",
      "blockHash": "0x7aaabc888c96cbc1b377fe8d5270ebb0cf89d4fbe5eab639206a28038d1bf204",
      "blockNumber": "0x6f4091",
      "gasUsed": "0x1ae16",
      "effectiveGasPrice": "0x927ef3c28",
      "from": "0x07943b8134e559fdb31fd812e4a4911a0a2942b7",
      "to": "0xe35c175d34eace9c9191f1a3bf17c40e0237a17a",
      "contractAddress": null
    }
  ],
  "libraries": [],
  "pending": [],
  "returns": {},
  "timestamp": 1734355177,
  "chain": 11155111,
  "commit": "5b8455d"
}