{
  "transactions": [
    {
      "hash": "0xe5f91f03bd3c04ee0fd8c1da5394fd8ee409ab4891ad237eef3628181763ddac",
      "transactionType": "CREATE",
      "contractName": "Auction",
      "contractAddress": "0xf43dca0272d9783c7a1e4e2c726af3bd6f66c8d7",
      "function": null,
      "arguments": [
        "0xdD8670E1f26aBeC9CFbAB73bCA4d12edd74C1AB2",
        "30",
        "10",
        "0x5F3B21DeBc4e32591C96d6a1a77A15Ce5EBf09eb",
        "1"
      ],
      "transaction": {
        "from": "0x07943b8134e559fdb31fd812e4a4911a0a2942b7",
        "gas": "0x121236",
        "value": "0x0",
        "input": "0x60806040525f6004819055600655600a805460ff19169055348015610022575f5ffd5b50604051610f37380380610f37833981016040819052610041916101e8565b338061006757604051631e4fbdf760e01b81525f60048201526024015b60405180910390fd5b6100708161017e565b50600180546001600160a01b0319166001600160a01b0387161790556100968442610237565b6007556004838155600280546001600160a01b0319166001600160a01b03851690811790915560038390556040516331a9108f60e11b81529182018390523391636352211e90602401602060405180830381865afa1580156100fa573d5f5f3e3d5ffd5b505050506040513d601f19601f8201168201806040525081019061011e919061025c565b6001600160a01b0316146101745760405162461bcd60e51b815260206004820152601760248201527f4f6e6c79206f776e65722063616e2073656c6c204e4654000000000000000000604482015260640161005e565b505050505061027c565b5f80546001600160a01b038381166001600160a01b0319831681178455604051919092169283917f8be0079c531659141344cd1fd0a4f28419497f9722a3daafe3b4186f6b6457e09190a35050565b80516001600160a01b03811681146101e3575f5ffd5b919050565b5f5f5f5f5f60a086880312156101fc575f5ffd5b610205866101cd565b6020870151604088015191965094509250610222606087016101cd565b60809690960151949793965091949392915050565b8082018082111561025657634e487b7160e01b5f52601160045260245ffd5b92915050565b5f6020828403121561026c575f5ffd5b610275826101cd565b9392505050565b610cae806102895f395ff3fe608060405234801561000f575f5ffd5b50600436106100fa575f3560e01c8063715018a611610093578063d553f2bf11610063578063d553f2bf146101e1578063e32935fe146101f4578063e5c6009114610213578063f2fde38b1461021c575f5ffd5b8063715018a6146101ad5780638da5cb5b146101b5578063bd9215f4146101c5578063d51ad5ed146101d8575f5ffd5b80633ccfd60b116100ce5780633ccfd60b14610154578063454a2ab31461015c57806347ccca021461016f578063578f58181461019a575f5ffd5b806270c537146100fe57806312fa6feb1461011357806316243356146101355780632a24f46c1461014c575b5f5ffd5b61011161010c366004610bdc565b61022f565b005b600a546101209060ff1681565b60405190151581526020015b60405180910390f35b61013e60075481565b60405190815260200161012c565b610111610550565b6101116107b7565b61011161016a366004610bdc565b6107c0565b600254610182906001600160a01b031681565b6040516001600160a01b03909116815260200161012c565b600154610182906001600160a01b031681565b610111610a43565b5f546001600160a01b0316610182565b600554610182906001600160a01b031681565b61013e60045481565b6101826101ef366004610bdc565b610a54565b61013e610202366004610bf3565b60086020525f908152604090205481565b61013e60065481565b61011161022a366004610bf3565b610a7c565b335f90815260086020526040902054816102875760405162461bcd60e51b815260206004820152601460248201527342696420696e637265617365206973207a65726f60601b60448201526064015b60405180910390fd5b5f81116102e15760405162461bcd60e51b815260206004820152602260248201527f596f75206e65656420746f206d616b6520696e697469616c20626964206669726044820152611cdd60f21b606482015260840161027e565b600754421061032a5760405162461bcd60e51b8152602060048201526015602482015274105d58dd1a5bdb88185b1c9958591e48195b991959605a1b604482015260640161027e565b6006546103378383610c20565b116103845760405162461bcd60e51b815260206004820152601d60248201527f546865726520697320616c726561647920612068696768657220626964000000604482015260640161027e565b6001546040516323b872dd60e01b8152336004820152306024820152604481018490526001600160a01b03909116906323b872dd906064016020604051808303815f875af11580156103d8573d5f5f3e3d5ffd5b505050506040513d601f19601f820116820180604052508101906103fc9190610c45565b61043a5760405162461bcd60e51b815260206004820152600f60248201526e151c985b9cd9995c8819985a5b1959608a1b604482015260640161027e565b600654156104c5576006546005546001600160a01b03165f908152600860205260408120805490919061046e908490610c20565b9091555050600554600980546001810182555f919091527f6e1540171b6c0c960b71a7020d9f60077f6af931a8bbf590da0223dacf75c7af0180546001600160a01b0319166001600160a01b039092169190911790555b600580546001600160a01b031916331790556104e18282610c20565b6006556005546001600160a01b03165f908152600860205260408120557ff4757a49b326036464bec6fe419a4ae38c8a02ce3e68bf0809674f6aab8ad3003361052a8484610c20565b604080516001600160a01b03909316835260208301919091520160405180910390a15050565b610558610ab9565b6007544210156105a25760405162461bcd60e51b8152602060048201526015602482015274105d58dd1a5bdb881b9bdd081e595d08195b991959605a1b604482015260640161027e565b600a5460ff16156105f55760405162461bcd60e51b815260206004820152601e60248201527f41756374696f6e2068617320616c7265616479206265656e20656e6465640000604482015260640161027e565b600a805460ff19166001179055600554600654604080516001600160a01b03909316835260208301919091527fdaec4582d5d9595688c8c98545fdd1c696d41c6aeaeb636737e84ed2f5c00eda910160405180910390a15f5b60095481101561068f576106876009828154811061066e5761066e610c64565b5f918252602090912001546001600160a01b0316610ae5565b60010161064e565b50600654156107b5576001546001600160a01b031663a9059cbb6106ba5f546001600160a01b031690565b6006546040516001600160e01b031960e085901b1681526001600160a01b03909216600483015260248201526044016020604051808303815f875af1158015610705573d5f5f3e3d5ffd5b505050506040513d601f19601f820116820180604052508101906107299190610c45565b506002546001600160a01b03166323b872dd61074c5f546001600160a01b031690565b60055460035460405160e085901b6001600160e01b03191681526001600160a01b03938416600482015292909116602483015260448201526064015f604051808303815f87803b15801561079e575f5ffd5b505af11580156107b0573d5f5f3e3d5ffd5b505050505b565b6107b533610ae5565b6004548110156108125760405162461bcd60e51b815260206004820152601860248201527f426964206973206c657373207468616e206d696e696d616c0000000000000000604482015260640161027e565b600754421061085b5760405162461bcd60e51b8152602060048201526015602482015274105d58dd1a5bdb88185b1c9958591e48195b991959605a1b604482015260640161027e565b60065481116108ac5760405162461bcd60e51b815260206004820152601d60248201527f546865726520697320616c726561647920612068696768657220626964000000604482015260640161027e565b6001546040516323b872dd60e01b8152336004820152306024820152604481018390526001600160a01b03909116906323b872dd906064016020604051808303815f875af1158015610900573d5f5f3e3d5ffd5b505050506040513d601f19601f820116820180604052508101906109249190610c45565b6109625760405162461bcd60e51b815260206004820152600f60248201526e151c985b9cd9995c8819985a5b1959608a1b604482015260640161027e565b600654156109ed576006546005546001600160a01b03165f9081526008602052604081208054909190610996908490610c20565b9091555050600554600980546001810182555f919091527f6e1540171b6c0c960b71a7020d9f60077f6af931a8bbf590da0223dacf75c7af0180546001600160a01b0319166001600160a01b039092169190911790555b600580546001600160a01b03191633908117909155600682905560408051918252602082018390527ff4757a49b326036464bec6fe419a4ae38c8a02ce3e68bf0809674f6aab8ad300910160405180910390a150565b610a4b610ab9565b6107b55f610b8d565b60098181548110610a63575f80fd5b5f918252602090912001546001600160a01b0316905081565b610a84610ab9565b6001600160a01b038116610aad57604051631e4fbdf760e01b81525f600482015260240161027e565b610ab681610b8d565b50565b5f546001600160a01b031633146107b55760405163118cdaa760e01b815233600482015260240161027e565b6001600160a01b0381165f908152600860205260409020548015610b8957335f8181526008602052604080822091909155600154905163a9059cbb60e01b81526004810192909252602482018390526001600160a01b03169063a9059cbb906044016020604051808303815f875af1158015610b63573d5f5f3e3d5ffd5b505050506040513d601f19601f82011682018060405250810190610b879190610c45565b505b5050565b5f80546001600160a01b038381166001600160a01b0319831681178455604051919092169283917f8be0079c531659141344cd1fd0a4f28419497f9722a3daafe3b4186f6b6457e09190a35050565b5f60208284031215610bec575f5ffd5b5035919050565b5f60208284031215610c03575f5ffd5b81356001600160a01b0381168114610c19575f5ffd5b9392505050565b80820180821115610c3f57634e487b7160e01b5f52601160045260245ffd5b92915050565b5f60208284031215610c55575f5ffd5b81518015158114610c19575f5ffd5b634e487b7160e01b5f52603260045260245ffdfea2646970667358221220c4e6775ed7084822d7fe7e5190380317335126f6d9e835deb3db25495e06cad264736f6c634300081c0033000000000000000000000000dd8670e1f26abec9cfbab73bca4d12edd74c1ab2000000000000000000000000000000000000000000000000000000000000001e000000000000000000000000000000000000000000000000000000000000000a0000000000000000000000005f3b21debc4e32591c96d6a1a77a15ce5ebf09eb0000000000000000000000000000000000000000000000000000000000000001",
        "nonce": "0x48",
        "chainId": "0xaa36a7"
      },
      "additionalContracts": [],
      "isFixedGasLimit": false
    },
    {
      "hash": "0x532ac6cdaf08651e6116855e46567c80b0d707c945582015ee60d4ae5add4c9d",
      "transactionType": "CALL",
      "contractName": null,
      "contractAddress": "0xdd8670e1f26abec9cfbab73bca4d12edd74c1ab2",
      "function": "mint()",
      "arguments": [],
      "transaction": {
        "from": "0xf4445f38bd9c3038f17cee4a95897213a2a56192",
        "to": "0xdd8670e1f26abec9cfbab73bca4d12edd74c1ab2",
        "gas": "0x96b2",
        "value": "0x0",
        "input": "0x1249c58b",
        "nonce": "0xb",
        "chainId": "0xaa36a7"
      },
      "additionalContracts": [],
      "isFixedGasLimit": false
    },
    {
      "hash": "0xa2c81006be46b4292aa32605252dfa365b794188dcb0b2cc2cc12014f23f8570",
      "transactionType": "CALL",
      "contractName": null,
      "contractAddress": "0xdd8670e1f26abec9cfbab73bca4d12edd74c1ab2",
      "function": "approve(address,uint256)",
      "arguments": [
        "0xF43Dca0272d9783C7a1E4E2C726AF3bD6f66C8d7",
        "1000"
      ],
      "transaction": {
        "from": "0xf4445f38bd9c3038f17cee4a95897213a2a56192",
        "to": "0xdd8670e1f26abec9cfbab73bca4d12edd74c1ab2",
        "gas": "0xf9e7",
        "value": "0x0",
        "input": "0x095ea7b3000000000000000000000000f43dca0272d9783c7a1e4e2c726af3bd6f66c8d700000000000000000000000000000000000000000000000000000000000003e8",
        "nonce": "0xc",
        "chainId": "0xaa36a7"
      },
      "additionalContracts": [],
      "isFixedGasLimit": false
    },
    {
      "hash": "0x248cca0decb44de7780429afab146c0c4b055e95836cb4045c5ae1fceae3c185",
      "transactionType": "CALL",
      "contractName": "Auction",
      "contractAddress": "0xf43dca0272d9783c7a1e4e2c726af3bd6f66c8d7",
      "function": "bid(uint256)",
      "arguments": [
        "10"
      ],
      "transaction": {
        "from": "0xf4445f38bd9c3038f17cee4a95897213a2a56192",
        "to": "0xf43dca0272d9783c7a1e4e2c726af3bd6f66c8d7",
        "gas": "0x25cc2",
        "value": "0x0",
        "input": "0x454a2ab3000000000000000000000000000000000000000000000000000000000000000a",
        "nonce": "0xd",
        "chainId": "0xaa36a7"
      },
      "additionalContracts": [],
      "isFixedGasLimit": false
    }
  ],
  "receipts": [
    {
      "status": "0x1",
      "cumulativeGasUsed": "0xcc7421",
      "logs": [
        {
          "address": "0xf43dca0272d9783c7a1e4e2c726af3bd6f66c8d7",
          "topics": [
            "0x8be0079c531659141344cd1fd0a4f28419497f9722a3daafe3b4186f6b6457e0",
            "0x0000000000000000000000000000000000000000000000000000000000000000",
            "0x00000000000000000000000007943b8134e559fdb31fd812e4a4911a0a2942b7"
          ],
          "data": "0x",
          "blockHash": "0xe50b0fe9b3a6e951345b1b9993f57a3e82479cba2e8f3bcbd56428e1bcb1c401",
          "blockNumber": "0x6f4060",
          "transactionHash": "0xe5f91f03bd3c04ee0fd8c1da5394fd8ee409ab4891ad237eef3628181763ddac",
          "transactionIndex": "0x77",
          "logIndex": "0x111",
          "removed": false
        }
      ],
      "logsBloom": "0x00000000000000000000000000000001000000000000000000800000000000000000000000000000000000000000000000000000001000000000000000000000000000000000000000000000000000000001000000000040000000000000000000000000020000000000000000000800000000000000000000000000000000400000000000000000000000000000000000000000000000400000000000000000000000000000004000000000000000000000000000000000000000000000000100000000000000000000000000000000000000000000000000000000000020000000000000000000000000000000000000000000000000000000000000000000",
      "type": "0x2",
      "transactionHash": "0xe5f91f03bd3c04ee0fd8c1da5394fd8ee409ab4891ad237eef3628181763ddac",
      "transactionIndex": "0x77",
      "blockHash": "0xe50b0fe9b3a6e951345b1b9993f57a3e82479cba2e8f3bcbd56428e1bcb1c401",
      "blockNumber": "0x6f4060",
      "gasUsed": "0xde6a0",
      "effectiveGasPrice": "0x817097ebc",
      "from": "0x07943b8134e559fdb31fd812e4a4911a0a2942b7",
      "to": null,
      "contractAddress": "0xf43dca0272d9783c7a1e4e2c726af3bd6f66c8d7"
    },
    {
      "status": "0x1",
      "cumulativeGasUsed": "0xa2eff9",
      "logs": [],
      "logsBloom": "0x00000000000000000000000000000000000000000000000000000000000000000000000000000000000000000000000000000000000000000000000000000000000000000000000000000000000000000000000000000000000000000000000000000000000000000000000000000000000000000000000000000000000000000000000000000000000000000000000000000000000000000000000000000000000000000000000000000000000000000000000000000000000000000000000000000000000000000000000000000000000000000000000000000000000000000000000000000000000000000000000000000000000000000000000000000000",
      "type": "0x2",
      "transactionHash": "0x532ac6cdaf08651e6116855e46567c80b0d707c945582015ee60d4ae5add4c9d",
      "transactionIndex": "0x80",
      "blockHash": "0xa3b652c07d9ee167b9e464e7f1abf632651c91f980ae59e18beeaeba74be1cd2",
      "blockNumber": "0x6f4062",
      "gasUsed": "0x670b",
      "effectiveGasPrice": "0x7d2bb778f",
      "from": "0xf4445f38bd9c3038f17cee4a95897213a2a56192",
      "to": "0xdd8670e1f26abec9cfbab73bca4d12edd74c1ab2",
      "contractAddress": null
    },
    {
      "status": "0x1",
      "cumulativeGasUsed": "0x8951ac",
      "logs": [
        {
          "address": "0xdd8670e1f26abec9cfbab73bca4d12edd74c1ab2",
          "topics": [
            "0x8c5be1e5ebec7d5bd14f71427d1e84f3dd0314c0f7b2291e5b200ac8c7c3b925",
            "0x000000000000000000000000f4445f38bd9c3038f17cee4a95897213a2a56192",
            "0x000000000000000000000000f43dca0272d9783c7a1e4e2c726af3bd6f66c8d7"
          ],
          "data": "0x00000000000000000000000000000000000000000000000000000000000003e8",
          "blockHash": "0x0cff0a8d1e6475a9cc8741ba9466d5304a2dd964b96e9db733ca9505d2878be0",
          "blockNumber": "0x6f4063",
          "transactionHash": "0xa2c81006be46b4292aa32605252dfa365b794188dcb0b2cc2cc12014f23f8570",
          "transactionIndex": "0x4d",
          "logIndex": "0x7f",
          "removed": false
        }
      ],
      "logsBloom": "0x00000000000000000000000000000008000000000000000080000000000000000000000000000000000000000000100000000000000000000000000000200000000000000000000000000000000000000000000000000000000000000000000000000000000000000000000000000000000000000004000000000000000000080000000000000000000000000000000000000000020000002000000000000000020000000000000000000000000000000000000000000000000000000000000000000000000000000000000000000000000000000000000000000000000000200010000000000000000000000010000000000000000000000000000000000000",
      "type": "0x2",
      "transactionHash": "0xa2c81006be46b4292aa32605252dfa365b794188dcb0b2cc2cc12014f23f8570",
      "transactionIndex": "0x4d",
      "blockHash": "0x0cff0a8d1e6475a9cc8741ba9466d5304a2dd964b96e9db733ca9505d2878be0",
      "blockNumber": "0x6f4063",
      "gasUsed": "0xb4ee",
      "effectiveGasPrice": "0x7b3ac78f9",
      "from": "0xf4445f38bd9c3038f17cee4a95897213a2a56192",
      "to": "0xdd8670e1f26abec9cfbab73bca4d12edd74c1ab2",
      "contractAddress": null
    }
  ],
  "libraries": [],
  "pending": [],
  "returns": {},
  "timestamp": 1734354614,
  "chain": 11155111,
  "commit": "5b8455d"
}